{
  "_format": "hh-sol-artifact-1",
  "contractName": "AIModelNFT",
  "sourceName": "contracts/AIModelNFT.sol",
  "abi": [
    {
      "inputs": [],
      "stateMutability": "nonpayable",
      "type": "constructor"
    },
    {
      "anonymous": false,
      "inputs": [
        {
          "indexed": true,
          "internalType": "address",
          "name": "owner",
          "type": "address"
        },
        {
          "indexed": true,
          "internalType": "address",
          "name": "approved",
          "type": "address"
        },
        {
          "indexed": true,
          "internalType": "uint256",
          "name": "tokenId",
          "type": "uint256"
        }
      ],
      "name": "Approval",
      "type": "event"
    },
    {
      "anonymous": false,
      "inputs": [
        {
          "indexed": true,
          "internalType": "address",
          "name": "owner",
          "type": "address"
        },
        {
          "indexed": true,
          "internalType": "address",
          "name": "operator",
          "type": "address"
        },
        {
          "indexed": false,
          "internalType": "bool",
          "name": "approved",
          "type": "bool"
        }
      ],
      "name": "ApprovalForAll",
      "type": "event"
    },
    {
      "anonymous": false,
      "inputs": [
        {
          "indexed": false,
          "internalType": "uint256",
          "name": "_fromTokenId",
          "type": "uint256"
        },
        {
          "indexed": false,
          "internalType": "uint256",
          "name": "_toTokenId",
          "type": "uint256"
        }
      ],
      "name": "BatchMetadataUpdate",
      "type": "event"
    },
    {
      "anonymous": false,
      "inputs": [
        {
          "indexed": false,
          "internalType": "uint256",
          "name": "_tokenId",
          "type": "uint256"
        }
      ],
      "name": "MetadataUpdate",
      "type": "event"
    },
    {
      "anonymous": false,
      "inputs": [
        {
          "indexed": true,
          "internalType": "address",
          "name": "previousOwner",
          "type": "address"
        },
        {
          "indexed": true,
          "internalType": "address",
          "name": "newOwner",
          "type": "address"
        }
      ],
      "name": "OwnershipTransferred",
      "type": "event"
    },
    {
      "anonymous": false,
      "inputs": [
        {
          "indexed": true,
          "internalType": "address",
          "name": "from",
          "type": "address"
        },
        {
          "indexed": true,
          "internalType": "address",
          "name": "to",
          "type": "address"
        },
        {
          "indexed": true,
          "internalType": "uint256",
          "name": "tokenId",
          "type": "uint256"
        }
      ],
      "name": "Transfer",
      "type": "event"
    },
    {
      "inputs": [
        {
          "internalType": "address",
          "name": "to",
          "type": "address"
        },
        {
          "internalType": "uint256",
          "name": "tokenId",
          "type": "uint256"
        }
      ],
      "name": "approve",
      "outputs": [],
      "stateMutability": "nonpayable",
      "type": "function"
    },
    {
      "inputs": [
        {
          "internalType": "address",
          "name": "owner",
          "type": "address"
        }
      ],
      "name": "balanceOf",
      "outputs": [
        {
          "internalType": "uint256",
          "name": "",
          "type": "uint256"
        }
      ],
      "stateMutability": "view",
      "type": "function"
    },
    {
      "inputs": [
        {
          "internalType": "uint256",
          "name": "tokenId",
          "type": "uint256"
        }
      ],
      "name": "buyModel",
      "outputs": [],
      "stateMutability": "payable",
      "type": "function"
    },
    {
      "inputs": [
        {
          "internalType": "uint256",
          "name": "tokenId",
          "type": "uint256"
        }
      ],
      "name": "getApproved",
      "outputs": [
        {
          "internalType": "address",
          "name": "",
          "type": "address"
        }
      ],
      "stateMutability": "view",
      "type": "function"
    },
    {
      "inputs": [
        {
          "internalType": "address",
          "name": "owner",
          "type": "address"
        },
        {
          "internalType": "address",
          "name": "operator",
          "type": "address"
        }
      ],
      "name": "isApprovedForAll",
      "outputs": [
        {
          "internalType": "bool",
          "name": "",
          "type": "bool"
        }
      ],
      "stateMutability": "view",
      "type": "function"
    },
    {
      "inputs": [
        {
          "internalType": "uint256",
          "name": "tokenId",
          "type": "uint256"
        },
        {
          "internalType": "uint256",
          "name": "price",
          "type": "uint256"
        }
      ],
      "name": "listForSale",
      "outputs": [],
      "stateMutability": "nonpayable",
      "type": "function"
    },
    {
      "inputs": [
        {
          "internalType": "string",
          "name": "tokenURI",
          "type": "string"
        },
        {
          "internalType": "uint256",
          "name": "price",
          "type": "uint256"
        }
      ],
      "name": "mintModel",
      "outputs": [
        {
          "internalType": "uint256",
          "name": "",
          "type": "uint256"
        }
      ],
      "stateMutability": "nonpayable",
      "type": "function"
    },
    {
      "inputs": [
        {
          "internalType": "uint256",
          "name": "",
          "type": "uint256"
        }
      ],
      "name": "models",
      "outputs": [
        {
          "internalType": "uint256",
          "name": "tokenId",
          "type": "uint256"
        },
        {
          "internalType": "uint256",
          "name": "price",
          "type": "uint256"
        },
        {
          "internalType": "bool",
          "name": "forSale",
          "type": "bool"
        }
      ],
      "stateMutability": "view",
      "type": "function"
    },
    {
      "inputs": [],
      "name": "name",
      "outputs": [
        {
          "internalType": "string",
          "name": "",
          "type": "string"
        }
      ],
      "stateMutability": "view",
      "type": "function"
    },
    {
      "inputs": [],
      "name": "owner",
      "outputs": [
        {
          "internalType": "address",
          "name": "",
          "type": "address"
        }
      ],
      "stateMutability": "view",
      "type": "function"
    },
    {
      "inputs": [
        {
          "internalType": "uint256",
          "name": "tokenId",
          "type": "uint256"
        }
      ],
      "name": "ownerOf",
      "outputs": [
        {
          "internalType": "address",
          "name": "",
          "type": "address"
        }
      ],
      "stateMutability": "view",
      "type": "function"
    },
    {
      "inputs": [],
      "name": "renounceOwnership",
      "outputs": [],
      "stateMutability": "nonpayable",
      "type": "function"
    },
    {
      "inputs": [
        {
          "internalType": "address",
          "name": "from",
          "type": "address"
        },
        {
          "internalType": "address",
          "name": "to",
          "type": "address"
        },
        {
          "internalType": "uint256",
          "name": "tokenId",
          "type": "uint256"
        }
      ],
      "name": "safeTransferFrom",
      "outputs": [],
      "stateMutability": "nonpayable",
      "type": "function"
    },
    {
      "inputs": [
        {
          "internalType": "address",
          "name": "from",
          "type": "address"
        },
        {
          "internalType": "address",
          "name": "to",
          "type": "address"
        },
        {
          "internalType": "uint256",
          "name": "tokenId",
          "type": "uint256"
        },
        {
          "internalType": "bytes",
          "name": "data",
          "type": "bytes"
        }
      ],
      "name": "safeTransferFrom",
      "outputs": [],
      "stateMutability": "nonpayable",
      "type": "function"
    },
    {
      "inputs": [
        {
          "internalType": "address",
          "name": "operator",
          "type": "address"
        },
        {
          "internalType": "bool",
          "name": "approved",
          "type": "bool"
        }
      ],
      "name": "setApprovalForAll",
      "outputs": [],
      "stateMutability": "nonpayable",
      "type": "function"
    },
    {
      "inputs": [
        {
          "internalType": "bytes4",
          "name": "interfaceId",
          "type": "bytes4"
        }
      ],
      "name": "supportsInterface",
      "outputs": [
        {
          "internalType": "bool",
          "name": "",
          "type": "bool"
        }
      ],
      "stateMutability": "view",
      "type": "function"
    },
    {
      "inputs": [],
      "name": "symbol",
      "outputs": [
        {
          "internalType": "string",
          "name": "",
          "type": "string"
        }
      ],
      "stateMutability": "view",
      "type": "function"
    },
    {
      "inputs": [],
      "name": "tokenCounter",
      "outputs": [
        {
          "internalType": "uint256",
          "name": "",
          "type": "uint256"
        }
      ],
      "stateMutability": "view",
      "type": "function"
    },
    {
      "inputs": [
        {
          "internalType": "uint256",
          "name": "tokenId",
          "type": "uint256"
        }
      ],
      "name": "tokenURI",
      "outputs": [
        {
          "internalType": "string",
          "name": "",
          "type": "string"
        }
      ],
      "stateMutability": "view",
      "type": "function"
    },
    {
      "inputs": [
        {
          "internalType": "address",
          "name": "from",
          "type": "address"
        },
        {
          "internalType": "address",
          "name": "to",
          "type": "address"
        },
        {
          "internalType": "uint256",
          "name": "tokenId",
          "type": "uint256"
        }
      ],
      "name": "transferFrom",
      "outputs": [],
      "stateMutability": "nonpayable",
      "type": "function"
    },
    {
      "inputs": [
        {
          "internalType": "address",
          "name": "newOwner",
          "type": "address"
        }
      ],
      "name": "transferOwnership",
      "outputs": [],
      "stateMutability": "nonpayable",
      "type": "function"
    }
  ],
  "bytecode": "0x60806040523480156200001157600080fd5b506040518060400160405280600a81526020017f41494d6f64656c4e4654000000000000000000000000000000000000000000008152506040518060400160405280600381526020017f41494d000000000000000000000000000000000000000000000000000000000081525081600090816200008f91906200041a565b508060019081620000a191906200041a565b505050620000c4620000b8620000d260201b60201c565b620000da60201b60201c565b600060088190555062000501565b600033905090565b6000600760009054906101000a900473ffffffffffffffffffffffffffffffffffffffff16905081600760006101000a81548173ffffffffffffffffffffffffffffffffffffffff021916908373ffffffffffffffffffffffffffffffffffffffff1602179055508173ffffffffffffffffffffffffffffffffffffffff168173ffffffffffffffffffffffffffffffffffffffff167f8be0079c531659141344cd1fd0a4f28419497f9722a3daafe3b4186f6b6457e060405160405180910390a35050565b600081519050919050565b7f4e487b7100000000000000000000000000000000000000000000000000000000600052604160045260246000fd5b7f4e487b7100000000000000000000000000000000000000000000000000000000600052602260045260246000fd5b600060028204905060018216806200022257607f821691505b602082108103620002385762000237620001da565b5b50919050565b60008190508160005260206000209050919050565b60006020601f8301049050919050565b600082821b905092915050565b600060088302620002a27fffffffffffffffffffffffffffffffffffffffffffffffffffffffffffffffff8262000263565b620002ae868362000263565b95508019841693508086168417925050509392505050565b6000819050919050565b6000819050919050565b6000620002fb620002f5620002ef84620002c6565b620002d0565b620002c6565b9050919050565b6000819050919050565b6200031783620002da565b6200032f620003268262000302565b84845462000270565b825550505050565b600090565b6200034662000337565b620003538184846200030c565b505050565b5b818110156200037b576200036f6000826200033c565b60018101905062000359565b5050565b601f821115620003ca5762000394816200023e565b6200039f8462000253565b81016020851015620003af578190505b620003c7620003be8562000253565b83018262000358565b50505b505050565b600082821c905092915050565b6000620003ef60001984600802620003cf565b1980831691505092915050565b60006200040a8383620003dc565b9150826002028217905092915050565b6200042582620001a0565b67ffffffffffffffff811115620004415762000440620001ab565b5b6200044d825462000209565b6200045a8282856200037f565b600060209050601f8311600181146200049257600084156200047d578287015190505b620004898582620003fc565b865550620004f9565b601f198416620004a2866200023e565b60005b82811015620004cc57848901518255600182019150602085019450602081019050620004a5565b86831015620004ec5784890151620004e8601f891682620003dc565b8355505b6001600288020188555050505b505050505050565b61355880620005116000396000f3fe60806040526004361061012a5760003560e01c8063715018a6116100ab578063bf6a6fc11161006f578063bf6a6fc114610404578063c87b56dd14610420578063d082e3811461045d578063e80d7fec14610488578063e985e9c5146104b1578063f2fde38b146104ee5761012a565b8063715018a6146103455780638da5cb5b1461035c57806395d89b4114610387578063a22cb465146103b2578063b88d4fde146103db5761012a565b80633eafa737116100f25780633eafa7371461022657806342842e0e146102635780636352211e1461028c5780636a030ca9146102c957806370a08231146103085761012a565b806301ffc9a71461012f57806306fdde031461016c578063081812fc14610197578063095ea7b3146101d457806323b872dd146101fd575b600080fd5b34801561013b57600080fd5b5061015660048036038101906101519190612117565b610517565b604051610163919061215f565b60405180910390f35b34801561017857600080fd5b50610181610578565b60405161018e919061220a565b60405180910390f35b3480156101a357600080fd5b506101be60048036038101906101b99190612262565b61060a565b6040516101cb91906122d0565b60405180910390f35b3480156101e057600080fd5b506101fb60048036038101906101f69190612317565b610650565b005b34801561020957600080fd5b50610224600480360381019061021f9190612357565b610767565b005b34801561023257600080fd5b5061024d600480360381019061024891906124df565b6107c7565b60405161025a919061254a565b60405180910390f35b34801561026f57600080fd5b5061028a60048036038101906102859190612357565b61086d565b005b34801561029857600080fd5b506102b360048036038101906102ae9190612262565b61088d565b6040516102c091906122d0565b60405180910390f35b3480156102d557600080fd5b506102f060048036038101906102eb9190612262565b610913565b6040516102ff93929190612565565b60405180910390f35b34801561031457600080fd5b5061032f600480360381019061032a919061259c565b61094a565b60405161033c919061254a565b60405180910390f35b34801561035157600080fd5b5061035a610a01565b005b34801561036857600080fd5b50610371610a15565b60405161037e91906122d0565b60405180910390f35b34801561039357600080fd5b5061039c610a3f565b6040516103a9919061220a565b60405180910390f35b3480156103be57600080fd5b506103d960048036038101906103d491906125f5565b610ad1565b005b3480156103e757600080fd5b5061040260048036038101906103fd91906126d6565b610ae7565b005b61041e60048036038101906104199190612262565b610b49565b005b34801561042c57600080fd5b5061044760048036038101906104429190612262565b610cb8565b604051610454919061220a565b60405180910390f35b34801561046957600080fd5b50610472610dca565b60405161047f919061254a565b60405180910390f35b34801561049457600080fd5b506104af60048036038101906104aa9190612759565b610dd0565b005b3480156104bd57600080fd5b506104d860048036038101906104d39190612799565b610e94565b6040516104e5919061215f565b60405180910390f35b3480156104fa57600080fd5b506105156004803603810190610510919061259c565b610f28565b005b6000634906490660e01b7bffffffffffffffffffffffffffffffffffffffffffffffffffffffff1916827bffffffffffffffffffffffffffffffffffffffffffffffffffffffff19161480610571575061057082610fab565b5b9050919050565b60606000805461058790612808565b80601f01602080910402602001604051908101604052809291908181526020018280546105b390612808565b80156106005780601f106105d557610100808354040283529160200191610600565b820191906000526020600020905b8154815290600101906020018083116105e357829003601f168201915b5050505050905090565b60006106158261108d565b6004600083815260200190815260200160002060009054906101000a900473ffffffffffffffffffffffffffffffffffffffff169050919050565b600061065b8261088d565b90508073ffffffffffffffffffffffffffffffffffffffff168373ffffffffffffffffffffffffffffffffffffffff16036106cb576040517f08c379a00000000000000000000000000000000000000000000000000000000081526004016106c2906128ab565b60405180910390fd5b8073ffffffffffffffffffffffffffffffffffffffff166106ea6110d8565b73ffffffffffffffffffffffffffffffffffffffff1614806107195750610718816107136110d8565b610e94565b5b610758576040517f08c379a000000000000000000000000000000000000000000000000000000000815260040161074f9061293d565b60405180910390fd5b61076283836110e0565b505050565b6107786107726110d8565b82611199565b6107b7576040517f08c379a00000000000000000000000000000000000000000000000000000000081526004016107ae906129cf565b60405180910390fd5b6107c283838361122e565b505050565b60008060085490506107d93382611527565b6107e38185611545565b60405180606001604052808281526020018481526020016001151581525060096000838152602001908152602001600020600082015181600001556020820151816001015560408201518160020160006101000a81548160ff0219169083151502179055509050506008600081548092919061085e90612a1e565b91905055508091505092915050565b61088883838360405180602001604052806000815250610ae7565b505050565b600080610899836115e9565b9050600073ffffffffffffffffffffffffffffffffffffffff168173ffffffffffffffffffffffffffffffffffffffff160361090a576040517f08c379a000000000000000000000000000000000000000000000000000000000815260040161090190612ab2565b60405180910390fd5b80915050919050565b60096020528060005260406000206000915090508060000154908060010154908060020160009054906101000a900460ff16905083565b60008073ffffffffffffffffffffffffffffffffffffffff168273ffffffffffffffffffffffffffffffffffffffff16036109ba576040517f08c379a00000000000000000000000000000000000000000000000000000000081526004016109b190612b44565b60405180910390fd5b600360008373ffffffffffffffffffffffffffffffffffffffff1673ffffffffffffffffffffffffffffffffffffffff168152602001908152602001600020549050919050565b610a09611626565b610a1360006116a4565b565b6000600760009054906101000a900473ffffffffffffffffffffffffffffffffffffffff16905090565b606060018054610a4e90612808565b80601f0160208091040260200160405190810160405280929190818152602001828054610a7a90612808565b8015610ac75780601f10610a9c57610100808354040283529160200191610ac7565b820191906000526020600020905b815481529060010190602001808311610aaa57829003601f168201915b5050505050905090565b610ae3610adc6110d8565b838361176a565b5050565b610af8610af26110d8565b83611199565b610b37576040517f08c379a0000000000000000000000000000000000000000000000000000000008152600401610b2e906129cf565b60405180910390fd5b610b43848484846118d6565b50505050565b60006009600083815260200190815260200160002060405180606001604052908160008201548152602001600182015481526020016002820160009054906101000a900460ff16151515158152505090508060400151610bde576040517f08c379a0000000000000000000000000000000000000000000000000000000008152600401610bd590612bb0565b60405180910390fd5b8060200151341015610c25576040517f08c379a0000000000000000000000000000000000000000000000000000000008152600401610c1c90612c1c565b60405180910390fd5b6000610c308361088d565b9050610c3d81338561122e565b8073ffffffffffffffffffffffffffffffffffffffff166108fc349081150290604051600060405180830381858888f19350505050158015610c83573d6000803e3d6000fd5b5060006009600085815260200190815260200160002060020160006101000a81548160ff021916908315150217905550505050565b6060610cc38261108d565b6000600660008481526020019081526020016000208054610ce390612808565b80601f0160208091040260200160405190810160405280929190818152602001828054610d0f90612808565b8015610d5c5780601f10610d3157610100808354040283529160200191610d5c565b820191906000526020600020905b815481529060010190602001808311610d3f57829003601f168201915b505050505090506000610d6d611932565b90506000815103610d82578192505050610dc5565b600082511115610db7578082604051602001610d9f929190612c78565b60405160208183030381529060405292505050610dc5565b610dc084611949565b925050505b919050565b60085481565b3373ffffffffffffffffffffffffffffffffffffffff16610df08361088d565b73ffffffffffffffffffffffffffffffffffffffff1614610e46576040517f08c379a0000000000000000000000000000000000000000000000000000000008152600401610e3d90612ce8565b60405180910390fd5b60016009600084815260200190815260200160002060020160006101000a81548160ff0219169083151502179055508060096000848152602001908152602001600020600101819055505050565b6000600560008473ffffffffffffffffffffffffffffffffffffffff1673ffffffffffffffffffffffffffffffffffffffff16815260200190815260200160002060008373ffffffffffffffffffffffffffffffffffffffff1673ffffffffffffffffffffffffffffffffffffffff16815260200190815260200160002060009054906101000a900460ff16905092915050565b610f30611626565b600073ffffffffffffffffffffffffffffffffffffffff168173ffffffffffffffffffffffffffffffffffffffff1603610f9f576040517f08c379a0000000000000000000000000000000000000000000000000000000008152600401610f9690612d7a565b60405180910390fd5b610fa8816116a4565b50565b60007f80ac58cd000000000000000000000000000000000000000000000000000000007bffffffffffffffffffffffffffffffffffffffffffffffffffffffff1916827bffffffffffffffffffffffffffffffffffffffffffffffffffffffff1916148061107657507f5b5e139f000000000000000000000000000000000000000000000000000000007bffffffffffffffffffffffffffffffffffffffffffffffffffffffff1916827bffffffffffffffffffffffffffffffffffffffffffffffffffffffff1916145b806110865750611085826119b1565b5b9050919050565b61109681611a1b565b6110d5576040517f08c379a00000000000000000000000000000000000000000000000000000000081526004016110cc90612ab2565b60405180910390fd5b50565b600033905090565b816004600083815260200190815260200160002060006101000a81548173ffffffffffffffffffffffffffffffffffffffff021916908373ffffffffffffffffffffffffffffffffffffffff160217905550808273ffffffffffffffffffffffffffffffffffffffff166111538361088d565b73ffffffffffffffffffffffffffffffffffffffff167f8c5be1e5ebec7d5bd14f71427d1e84f3dd0314c0f7b2291e5b200ac8c7c3b92560405160405180910390a45050565b6000806111a58361088d565b90508073ffffffffffffffffffffffffffffffffffffffff168473ffffffffffffffffffffffffffffffffffffffff1614806111e757506111e68185610e94565b5b8061122557508373ffffffffffffffffffffffffffffffffffffffff1661120d8461060a565b73ffffffffffffffffffffffffffffffffffffffff16145b91505092915050565b8273ffffffffffffffffffffffffffffffffffffffff1661124e8261088d565b73ffffffffffffffffffffffffffffffffffffffff16146112a4576040517f08c379a000000000000000000000000000000000000000000000000000000000815260040161129b90612e0c565b60405180910390fd5b600073ffffffffffffffffffffffffffffffffffffffff168273ffffffffffffffffffffffffffffffffffffffff1603611313576040517f08c379a000000000000000000000000000000000000000000000000000000000815260040161130a90612e9e565b60405180910390fd5b6113208383836001611a5c565b8273ffffffffffffffffffffffffffffffffffffffff166113408261088d565b73ffffffffffffffffffffffffffffffffffffffff1614611396576040517f08c379a000000000000000000000000000000000000000000000000000000000815260040161138d90612e0c565b60405180910390fd5b6004600082815260200190815260200160002060006101000a81549073ffffffffffffffffffffffffffffffffffffffff02191690556001600360008573ffffffffffffffffffffffffffffffffffffffff1673ffffffffffffffffffffffffffffffffffffffff168152602001908152602001600020600082825403925050819055506001600360008473ffffffffffffffffffffffffffffffffffffffff1673ffffffffffffffffffffffffffffffffffffffff16815260200190815260200160002060008282540192505081905550816002600083815260200190815260200160002060006101000a81548173ffffffffffffffffffffffffffffffffffffffff021916908373ffffffffffffffffffffffffffffffffffffffff160217905550808273ffffffffffffffffffffffffffffffffffffffff168473ffffffffffffffffffffffffffffffffffffffff167fddf252ad1be2c89b69c2b068fc378daa952ba7f163c4a11628f55a4df523b3ef60405160405180910390a46115228383836001611a62565b505050565b611541828260405180602001604052806000815250611a68565b5050565b61154e82611a1b565b61158d576040517f08c379a000000000000000000000000000000000000000000000000000000000815260040161158490612f30565b60405180910390fd5b806006600084815260200190815260200160002090816115ad91906130fc565b507ff8e1a15aba9398e019f0b49df1a4fde98ee17ae345cb5f6b5e2c27f5033e8ce7826040516115dd919061254a565b60405180910390a15050565b60006002600083815260200190815260200160002060009054906101000a900473ffffffffffffffffffffffffffffffffffffffff169050919050565b61162e6110d8565b73ffffffffffffffffffffffffffffffffffffffff1661164c610a15565b73ffffffffffffffffffffffffffffffffffffffff16146116a2576040517f08c379a00000000000000000000000000000000000000000000000000000000081526004016116999061321a565b60405180910390fd5b565b6000600760009054906101000a900473ffffffffffffffffffffffffffffffffffffffff16905081600760006101000a81548173ffffffffffffffffffffffffffffffffffffffff021916908373ffffffffffffffffffffffffffffffffffffffff1602179055508173ffffffffffffffffffffffffffffffffffffffff168173ffffffffffffffffffffffffffffffffffffffff167f8be0079c531659141344cd1fd0a4f28419497f9722a3daafe3b4186f6b6457e060405160405180910390a35050565b8173ffffffffffffffffffffffffffffffffffffffff168373ffffffffffffffffffffffffffffffffffffffff16036117d8576040517f08c379a00000000000000000000000000000000000000000000000000000000081526004016117cf90613286565b60405180910390fd5b80600560008573ffffffffffffffffffffffffffffffffffffffff1673ffffffffffffffffffffffffffffffffffffffff16815260200190815260200160002060008473ffffffffffffffffffffffffffffffffffffffff1673ffffffffffffffffffffffffffffffffffffffff16815260200190815260200160002060006101000a81548160ff0219169083151502179055508173ffffffffffffffffffffffffffffffffffffffff168373ffffffffffffffffffffffffffffffffffffffff167f17307eab39ab6107e8899845ad3d59bd9653f200f220920489ca2b5937696c31836040516118c9919061215f565b60405180910390a3505050565b6118e184848461122e565b6118ed84848484611ac3565b61192c576040517f08c379a000000000000000000000000000000000000000000000000000000000815260040161192390613318565b60405180910390fd5b50505050565b606060405180602001604052806000815250905090565b60606119548261108d565b600061195e611932565b9050600081511161197e57604051806020016040528060008152506119a9565b8061198884611c4a565b604051602001611999929190612c78565b6040516020818303038152906040525b915050919050565b60007f01ffc9a7000000000000000000000000000000000000000000000000000000007bffffffffffffffffffffffffffffffffffffffffffffffffffffffff1916827bffffffffffffffffffffffffffffffffffffffffffffffffffffffff1916149050919050565b60008073ffffffffffffffffffffffffffffffffffffffff16611a3d836115e9565b73ffffffffffffffffffffffffffffffffffffffff1614159050919050565b50505050565b50505050565b611a728383611d18565b611a7f6000848484611ac3565b611abe576040517f08c379a0000000000000000000000000000000000000000000000000000000008152600401611ab590613318565b60405180910390fd5b505050565b6000611ae48473ffffffffffffffffffffffffffffffffffffffff16611f35565b15611c3d578373ffffffffffffffffffffffffffffffffffffffff1663150b7a02611b0d6110d8565b8786866040518563ffffffff1660e01b8152600401611b2f949392919061338d565b6020604051808303816000875af1925050508015611b6b57506040513d601f19601f82011682018060405250810190611b6891906133ee565b60015b611bed573d8060008114611b9b576040519150601f19603f3d011682016040523d82523d6000602084013e611ba0565b606091505b506000815103611be5576040517f08c379a0000000000000000000000000000000000000000000000000000000008152600401611bdc90613318565b60405180910390fd5b805181602001fd5b63150b7a0260e01b7bffffffffffffffffffffffffffffffffffffffffffffffffffffffff1916817bffffffffffffffffffffffffffffffffffffffffffffffffffffffff191614915050611c42565b600190505b949350505050565b606060006001611c5984611f58565b01905060008167ffffffffffffffff811115611c7857611c776123b4565b5b6040519080825280601f01601f191660200182016040528015611caa5781602001600182028036833780820191505090505b509050600082602001820190505b600115611d0d578080600190039150507f3031323334353637383961626364656600000000000000000000000000000000600a86061a8153600a8581611d0157611d0061341b565b5b04945060008503611cb8575b819350505050919050565b600073ffffffffffffffffffffffffffffffffffffffff168273ffffffffffffffffffffffffffffffffffffffff1603611d87576040517f08c379a0000000000000000000000000000000000000000000000000000000008152600401611d7e90613496565b60405180910390fd5b611d9081611a1b565b15611dd0576040517f08c379a0000000000000000000000000000000000000000000000000000000008152600401611dc790613502565b60405180910390fd5b611dde600083836001611a5c565b611de781611a1b565b15611e27576040517f08c379a0000000000000000000000000000000000000000000000000000000008152600401611e1e90613502565b60405180910390fd5b6001600360008473ffffffffffffffffffffffffffffffffffffffff1673ffffffffffffffffffffffffffffffffffffffff16815260200190815260200160002060008282540192505081905550816002600083815260200190815260200160002060006101000a81548173ffffffffffffffffffffffffffffffffffffffff021916908373ffffffffffffffffffffffffffffffffffffffff160217905550808273ffffffffffffffffffffffffffffffffffffffff16600073ffffffffffffffffffffffffffffffffffffffff167fddf252ad1be2c89b69c2b068fc378daa952ba7f163c4a11628f55a4df523b3ef60405160405180910390a4611f31600083836001611a62565b5050565b6000808273ffffffffffffffffffffffffffffffffffffffff163b119050919050565b600080600090507a184f03e93ff9f4daa797ed6e38ed64bf6a1f0100000000000000008310611fb6577a184f03e93ff9f4daa797ed6e38ed64bf6a1f0100000000000000008381611fac57611fab61341b565b5b0492506040810190505b6d04ee2d6d415b85acef81000000008310611ff3576d04ee2d6d415b85acef81000000008381611fe957611fe861341b565b5b0492506020810190505b662386f26fc10000831061202257662386f26fc1000083816120185761201761341b565b5b0492506010810190505b6305f5e100831061204b576305f5e10083816120415761204061341b565b5b0492506008810190505b61271083106120705761271083816120665761206561341b565b5b0492506004810190505b6064831061209357606483816120895761208861341b565b5b0492506002810190505b600a83106120a2576001810190505b80915050919050565b6000604051905090565b600080fd5b600080fd5b60007fffffffff0000000000000000000000000000000000000000000000000000000082169050919050565b6120f4816120bf565b81146120ff57600080fd5b50565b600081359050612111816120eb565b92915050565b60006020828403121561212d5761212c6120b5565b5b600061213b84828501612102565b91505092915050565b60008115159050919050565b61215981612144565b82525050565b60006020820190506121746000830184612150565b92915050565b600081519050919050565b600082825260208201905092915050565b60005b838110156121b4578082015181840152602081019050612199565b60008484015250505050565b6000601f19601f8301169050919050565b60006121dc8261217a565b6121e68185612185565b93506121f6818560208601612196565b6121ff816121c0565b840191505092915050565b6000602082019050818103600083015261222481846121d1565b905092915050565b6000819050919050565b61223f8161222c565b811461224a57600080fd5b50565b60008135905061225c81612236565b92915050565b600060208284031215612278576122776120b5565b5b60006122868482850161224d565b91505092915050565b600073ffffffffffffffffffffffffffffffffffffffff82169050919050565b60006122ba8261228f565b9050919050565b6122ca816122af565b82525050565b60006020820190506122e560008301846122c1565b92915050565b6122f4816122af565b81146122ff57600080fd5b50565b600081359050612311816122eb565b92915050565b6000806040838503121561232e5761232d6120b5565b5b600061233c85828601612302565b925050602061234d8582860161224d565b9150509250929050565b6000806000606084860312156123705761236f6120b5565b5b600061237e86828701612302565b935050602061238f86828701612302565b92505060406123a08682870161224d565b9150509250925092565b600080fd5b600080fd5b7f4e487b7100000000000000000000000000000000000000000000000000000000600052604160045260246000fd5b6123ec826121c0565b810181811067ffffffffffffffff8211171561240b5761240a6123b4565b5b80604052505050565b600061241e6120ab565b905061242a82826123e3565b919050565b600067ffffffffffffffff82111561244a576124496123b4565b5b612453826121c0565b9050602081019050919050565b82818337600083830152505050565b600061248261247d8461242f565b612414565b90508281526020810184848401111561249e5761249d6123af565b5b6124a9848285612460565b509392505050565b600082601f8301126124c6576124c56123aa565b5b81356124d684826020860161246f565b91505092915050565b600080604083850312156124f6576124f56120b5565b5b600083013567ffffffffffffffff811115612514576125136120ba565b5b612520858286016124b1565b92505060206125318582860161224d565b9150509250929050565b6125448161222c565b82525050565b600060208201905061255f600083018461253b565b92915050565b600060608201905061257a600083018661253b565b612587602083018561253b565b6125946040830184612150565b949350505050565b6000602082840312156125b2576125b16120b5565b5b60006125c084828501612302565b91505092915050565b6125d281612144565b81146125dd57600080fd5b50565b6000813590506125ef816125c9565b92915050565b6000806040838503121561260c5761260b6120b5565b5b600061261a85828601612302565b925050602061262b858286016125e0565b9150509250929050565b600067ffffffffffffffff8211156126505761264f6123b4565b5b612659826121c0565b9050602081019050919050565b600061267961267484612635565b612414565b905082815260208101848484011115612695576126946123af565b5b6126a0848285612460565b509392505050565b600082601f8301126126bd576126bc6123aa565b5b81356126cd848260208601612666565b91505092915050565b600080600080608085870312156126f0576126ef6120b5565b5b60006126fe87828801612302565b945050602061270f87828801612302565b93505060406127208782880161224d565b925050606085013567ffffffffffffffff811115612741576127406120ba565b5b61274d878288016126a8565b91505092959194509250565b600080604083850312156127705761276f6120b5565b5b600061277e8582860161224d565b925050602061278f8582860161224d565b9150509250929050565b600080604083850312156127b0576127af6120b5565b5b60006127be85828601612302565b92505060206127cf85828601612302565b9150509250929050565b7f4e487b7100000000000000000000000000000000000000000000000000000000600052602260045260246000fd5b6000600282049050600182168061282057607f821691505b602082108103612833576128326127d9565b5b50919050565b7f4552433732313a20617070726f76616c20746f2063757272656e74206f776e6560008201527f7200000000000000000000000000000000000000000000000000000000000000602082015250565b6000612895602183612185565b91506128a082612839565b604082019050919050565b600060208201905081810360008301526128c481612888565b9050919050565b7f4552433732313a20617070726f76652063616c6c6572206973206e6f7420746f60008201527f6b656e206f776e6572206f7220617070726f76656420666f7220616c6c000000602082015250565b6000612927603d83612185565b9150612932826128cb565b604082019050919050565b600060208201905081810360008301526129568161291a565b9050919050565b7f4552433732313a2063616c6c6572206973206e6f7420746f6b656e206f776e6560008201527f72206f7220617070726f76656400000000000000000000000000000000000000602082015250565b60006129b9602d83612185565b91506129c48261295d565b604082019050919050565b600060208201905081810360008301526129e8816129ac565b9050919050565b7f4e487b7100000000000000000000000000000000000000000000000000000000600052601160045260246000fd5b6000612a298261222c565b91507fffffffffffffffffffffffffffffffffffffffffffffffffffffffffffffffff8203612a5b57612a5a6129ef565b5b600182019050919050565b7f4552433732313a20696e76616c696420746f6b656e2049440000000000000000600082015250565b6000612a9c601883612185565b9150612aa782612a66565b602082019050919050565b60006020820190508181036000830152612acb81612a8f565b9050919050565b7f4552433732313a2061646472657373207a65726f206973206e6f74206120766160008201527f6c6964206f776e65720000000000000000000000000000000000000000000000602082015250565b6000612b2e602983612185565b9150612b3982612ad2565b604082019050919050565b60006020820190508181036000830152612b5d81612b21565b9050919050565b7f4d6f64656c206e6f7420666f722073616c650000000000000000000000000000600082015250565b6000612b9a601283612185565b9150612ba582612b64565b602082019050919050565b60006020820190508181036000830152612bc981612b8d565b9050919050565b7f4e6f7420656e6f75676820455448000000000000000000000000000000000000600082015250565b6000612c06600e83612185565b9150612c1182612bd0565b602082019050919050565b60006020820190508181036000830152612c3581612bf9565b9050919050565b600081905092915050565b6000612c528261217a565b612c5c8185612c3c565b9350612c6c818560208601612196565b80840191505092915050565b6000612c848285612c47565b9150612c908284612c47565b91508190509392505050565b7f4e6f74206f776e65720000000000000000000000000000000000000000000000600082015250565b6000612cd2600983612185565b9150612cdd82612c9c565b602082019050919050565b60006020820190508181036000830152612d0181612cc5565b9050919050565b7f4f776e61626c653a206e6577206f776e657220697320746865207a65726f206160008201527f6464726573730000000000000000000000000000000000000000000000000000602082015250565b6000612d64602683612185565b9150612d6f82612d08565b604082019050919050565b60006020820190508181036000830152612d9381612d57565b9050919050565b7f4552433732313a207472616e736665722066726f6d20696e636f72726563742060008201527f6f776e6572000000000000000000000000000000000000000000000000000000602082015250565b6000612df6602583612185565b9150612e0182612d9a565b604082019050919050565b60006020820190508181036000830152612e2581612de9565b9050919050565b7f4552433732313a207472616e7366657220746f20746865207a65726f2061646460008201527f7265737300000000000000000000000000000000000000000000000000000000602082015250565b6000612e88602483612185565b9150612e9382612e2c565b604082019050919050565b60006020820190508181036000830152612eb781612e7b565b9050919050565b7f45524337323155524953746f726167653a2055524920736574206f66206e6f6e60008201527f6578697374656e7420746f6b656e000000000000000000000000000000000000602082015250565b6000612f1a602e83612185565b9150612f2582612ebe565b604082019050919050565b60006020820190508181036000830152612f4981612f0d565b9050919050565b60008190508160005260206000209050919050565b60006020601f8301049050919050565b600082821b905092915050565b600060088302612fb27fffffffffffffffffffffffffffffffffffffffffffffffffffffffffffffffff82612f75565b612fbc8683612f75565b95508019841693508086168417925050509392505050565b6000819050919050565b6000612ff9612ff4612fef8461222c565b612fd4565b61222c565b9050919050565b6000819050919050565b61301383612fde565b61302761301f82613000565b848454612f82565b825550505050565b600090565b61303c61302f565b61304781848461300a565b505050565b5b8181101561306b57613060600082613034565b60018101905061304d565b5050565b601f8211156130b05761308181612f50565b61308a84612f65565b81016020851015613099578190505b6130ad6130a585612f65565b83018261304c565b50505b505050565b600082821c905092915050565b60006130d3600019846008026130b5565b1980831691505092915050565b60006130ec83836130c2565b9150826002028217905092915050565b6131058261217a565b67ffffffffffffffff81111561311e5761311d6123b4565b5b6131288254612808565b61313382828561306f565b600060209050601f8311600181146131665760008415613154578287015190505b61315e85826130e0565b8655506131c6565b601f19841661317486612f50565b60005b8281101561319c57848901518255600182019150602085019450602081019050613177565b868310156131b957848901516131b5601f8916826130c2565b8355505b6001600288020188555050505b505050505050565b7f4f776e61626c653a2063616c6c6572206973206e6f7420746865206f776e6572600082015250565b6000613204602083612185565b915061320f826131ce565b602082019050919050565b60006020820190508181036000830152613233816131f7565b9050919050565b7f4552433732313a20617070726f766520746f2063616c6c657200000000000000600082015250565b6000613270601983612185565b915061327b8261323a565b602082019050919050565b6000602082019050818103600083015261329f81613263565b9050919050565b7f4552433732313a207472616e7366657220746f206e6f6e20455243373231526560008201527f63656976657220696d706c656d656e7465720000000000000000000000000000602082015250565b6000613302603283612185565b915061330d826132a6565b604082019050919050565b60006020820190508181036000830152613331816132f5565b9050919050565b600081519050919050565b600082825260208201905092915050565b600061335f82613338565b6133698185613343565b9350613379818560208601612196565b613382816121c0565b840191505092915050565b60006080820190506133a260008301876122c1565b6133af60208301866122c1565b6133bc604083018561253b565b81810360608301526133ce8184613354565b905095945050505050565b6000815190506133e8816120eb565b92915050565b600060208284031215613404576134036120b5565b5b6000613412848285016133d9565b91505092915050565b7f4e487b7100000000000000000000000000000000000000000000000000000000600052601260045260246000fd5b7f4552433732313a206d696e7420746f20746865207a65726f2061646472657373600082015250565b6000613480602083612185565b915061348b8261344a565b602082019050919050565b600060208201905081810360008301526134af81613473565b9050919050565b7f4552433732313a20746f6b656e20616c7265616479206d696e74656400000000600082015250565b60006134ec601c83612185565b91506134f7826134b6565b602082019050919050565b6000602082019050818103600083015261351b816134df565b905091905056fea26469706673582212205c3e24306e9bbd4ef75bba92ba586b6930e70ef24e7908b7783ead450f4c0e7d64736f6c63430008140033",
  "linkReferences": {},
  "deployedLinkReferences": {}
}