{
  "_format": "hh-sol-artifact-1",
  "contractName": "Marketplace",
  "sourceName": "contracts/Marketplace.sol",
  "abi": [
    {
      "inputs": [
        {
          "internalType": "address",
          "name": "_nftContract",
          "type": "address"
        }
      ],
      "stateMutability": "nonpayable",
      "type": "constructor"
    },
    {
      "anonymous": false,
      "inputs": [
        {
          "indexed": true,
          "internalType": "uint256",
          "name": "tokenId",
          "type": "uint256"
        }
      ],
      "name": "Cancelled",
      "type": "event"
    },
    {
      "anonymous": false,
      "inputs": [
        {
          "indexed": true,
          "internalType": "uint256",
          "name": "tokenId",
          "type": "uint256"
        },
        {
          "indexed": true,
          "internalType": "address",
          "name": "seller",
          "type": "address"
        },
        {
          "indexed": false,
          "internalType": "uint256",
          "name": "price",
          "type": "uint256"
        }
      ],
      "name": "Listed",
      "type": "event"
    },
    {
      "anonymous": false,
      "inputs": [
        {
          "indexed": true,
          "internalType": "uint256",
          "name": "tokenId",
          "type": "uint256"
        },
        {
          "indexed": true,
          "internalType": "address",
          "name": "buyer",
          "type": "address"
        },
        {
          "indexed": false,
          "internalType": "uint256",
          "name": "price",
          "type": "uint256"
        }
      ],
      "name": "Sale",
      "type": "event"
    },
    {
      "inputs": [
        {
          "internalType": "uint256",
          "name": "tokenId",
          "type": "uint256"
        }
      ],
      "name": "buyItem",
      "outputs": [],
      "stateMutability": "payable",
      "type": "function"
    },
    {
      "inputs": [
        {
          "internalType": "uint256",
          "name": "tokenId",
          "type": "uint256"
        }
      ],
      "name": "cancelListing",
      "outputs": [],
      "stateMutability": "nonpayable",
      "type": "function"
    },
    {
      "inputs": [
        {
          "internalType": "uint256",
          "name": "tokenId",
          "type": "uint256"
        }
      ],
      "name": "getListing",
      "outputs": [
        {
          "components": [
            {
              "internalType": "address",
              "name": "seller",
              "type": "address"
            },
            {
              "internalType": "uint256",
              "name": "price",
              "type": "uint256"
            }
          ],
          "internalType": "struct Marketplace.Listing",
          "name": "",
          "type": "tuple"
        }
      ],
      "stateMutability": "view",
      "type": "function"
    },
    {
      "inputs": [
        {
          "internalType": "uint256",
          "name": "tokenId",
          "type": "uint256"
        },
        {
          "internalType": "uint256",
          "name": "price",
          "type": "uint256"
        }
      ],
      "name": "listItem",
      "outputs": [],
      "stateMutability": "nonpayable",
      "type": "function"
    },
    {
      "inputs": [
        {
          "internalType": "uint256",
          "name": "",
          "type": "uint256"
        }
      ],
      "name": "listings",
      "outputs": [
        {
          "internalType": "address",
          "name": "seller",
          "type": "address"
        },
        {
          "internalType": "uint256",
          "name": "price",
          "type": "uint256"
        }
      ],
      "stateMutability": "view",
      "type": "function"
    },
    {
      "inputs": [],
      "name": "nftContract",
      "outputs": [
        {
          "internalType": "contract IERC721",
          "name": "",
          "type": "address"
        }
      ],
      "stateMutability": "view",
      "type": "function"
    }
  ],
  "bytecode": "0x60a06040523480156200001157600080fd5b5060405162001292380380620012928339818101604052810190620000379190620000e4565b60016000819055508073ffffffffffffffffffffffffffffffffffffffff1660808173ffffffffffffffffffffffffffffffffffffffff16815250505062000116565b600080fd5b600073ffffffffffffffffffffffffffffffffffffffff82169050919050565b6000620000ac826200007f565b9050919050565b620000be816200009f565b8114620000ca57600080fd5b50565b600081519050620000de81620000b3565b92915050565b600060208284031215620000fd57620000fc6200007a565b5b60006200010d84828501620000cd565b91505092915050565b6080516111446200014e600039600081816103c1015281816104c80152818161057f01528181610740015261095401526111446000f3fe6080604052600436106100555760003560e01c8063107a274a1461005a578063305a67a814610097578063883efa67146100c0578063d56d229d146100e9578063de74e57b14610114578063e7fb74c714610152575b600080fd5b34801561006657600080fd5b50610081600480360381019061007c9190610b08565b61016e565b60405161008e9190610bb4565b60405180910390f35b3480156100a357600080fd5b506100be60048036038101906100b99190610b08565b6101fb565b005b3480156100cc57600080fd5b506100e760048036038101906100e29190610bcf565b610365565b005b3480156100f557600080fd5b506100fe61073e565b60405161010b9190610c6e565b60405180910390f35b34801561012057600080fd5b5061013b60048036038101906101369190610b08565b610762565b604051610149929190610ca7565b60405180910390f35b61016c60048036038101906101679190610b08565b6107a6565b005b610176610a9d565b600160008381526020019081526020016000206040518060400160405290816000820160009054906101000a900473ffffffffffffffffffffffffffffffffffffffff1673ffffffffffffffffffffffffffffffffffffffff1673ffffffffffffffffffffffffffffffffffffffff1681526020016001820154815250509050919050565b6000600160008381526020019081526020016000206040518060400160405290816000820160009054906101000a900473ffffffffffffffffffffffffffffffffffffffff1673ffffffffffffffffffffffffffffffffffffffff1673ffffffffffffffffffffffffffffffffffffffff16815260200160018201548152505090503373ffffffffffffffffffffffffffffffffffffffff16816000015173ffffffffffffffffffffffffffffffffffffffff16146102ef576040517f08c379a00000000000000000000000000000000000000000000000000000000081526004016102e690610d2d565b60405180910390fd5b60016000838152602001908152602001600020600080820160006101000a81549073ffffffffffffffffffffffffffffffffffffffff021916905560018201600090555050817fc41d93b8bfbf9fd7cf5bfe271fd649ab6a6fec0ea101c23b82a2a28eca2533a960405160405180910390a25050565b600081116103a8576040517f08c379a000000000000000000000000000000000000000000000000000000000815260040161039f90610d99565b60405180910390fd5b3373ffffffffffffffffffffffffffffffffffffffff167f000000000000000000000000000000000000000000000000000000000000000073ffffffffffffffffffffffffffffffffffffffff16636352211e846040518263ffffffff1660e01b81526004016104189190610db9565b602060405180830381865afa158015610435573d6000803e3d6000fd5b505050506040513d601f19601f820116820180604052508101906104599190610e00565b73ffffffffffffffffffffffffffffffffffffffff16146104af576040517f08c379a00000000000000000000000000000000000000000000000000000000081526004016104a690610e79565b60405180910390fd5b3073ffffffffffffffffffffffffffffffffffffffff167f000000000000000000000000000000000000000000000000000000000000000073ffffffffffffffffffffffffffffffffffffffff1663081812fc846040518263ffffffff1660e01b815260040161051f9190610db9565b602060405180830381865afa15801561053c573d6000803e3d6000fd5b505050506040513d601f19601f820116820180604052508101906105609190610e00565b73ffffffffffffffffffffffffffffffffffffffff16148061061a57507f000000000000000000000000000000000000000000000000000000000000000073ffffffffffffffffffffffffffffffffffffffff1663e985e9c533306040518363ffffffff1660e01b81526004016105d8929190610e99565b602060405180830381865afa1580156105f5573d6000803e3d6000fd5b505050506040513d601f19601f820116820180604052508101906106199190610efa565b5b610659576040517f08c379a000000000000000000000000000000000000000000000000000000000815260040161065090610f73565b60405180910390fd5b60405180604001604052803373ffffffffffffffffffffffffffffffffffffffff168152602001828152506001600084815260200190815260200160002060008201518160000160006101000a81548173ffffffffffffffffffffffffffffffffffffffff021916908373ffffffffffffffffffffffffffffffffffffffff160217905550602082015181600101559050503373ffffffffffffffffffffffffffffffffffffffff16827f50955776c5778c3b7d968d86d8c51fb6b29a7a74c20866b533268e209fc08343836040516107329190610db9565b60405180910390a35050565b7f000000000000000000000000000000000000000000000000000000000000000081565b60016020528060005260406000206000915090508060000160009054906101000a900473ffffffffffffffffffffffffffffffffffffffff16908060010154905082565b6107ae610a44565b6000600160008381526020019081526020016000206040518060400160405290816000820160009054906101000a900473ffffffffffffffffffffffffffffffffffffffff1673ffffffffffffffffffffffffffffffffffffffff1673ffffffffffffffffffffffffffffffffffffffff16815260200160018201548152505090506000816020015111610877576040517f08c379a000000000000000000000000000000000000000000000000000000000815260040161086e90610fdf565b60405180910390fd5b80602001513410156108be576040517f08c379a00000000000000000000000000000000000000000000000000000000081526004016108b59061104b565b60405180910390fd5b60016000838152602001908152602001600020600080820160006101000a81549073ffffffffffffffffffffffffffffffffffffffff021916905560018201600090555050806000015173ffffffffffffffffffffffffffffffffffffffff166108fc82602001519081150290604051600060405180830381858888f19350505050158015610951573d6000803e3d6000fd5b507f000000000000000000000000000000000000000000000000000000000000000073ffffffffffffffffffffffffffffffffffffffff166342842e0e826000015133856040518463ffffffff1660e01b81526004016109b39392919061106b565b600060405180830381600087803b1580156109cd57600080fd5b505af11580156109e1573d6000803e3d6000fd5b505050503373ffffffffffffffffffffffffffffffffffffffff16827fc0e076a004e59b819c1099b4799386d7feaa928662e5f3f95af4db1a1502520d8360200151604051610a309190610db9565b60405180910390a350610a41610a93565b50565b600260005403610a89576040517f08c379a0000000000000000000000000000000000000000000000000000000008152600401610a80906110ee565b60405180910390fd5b6002600081905550565b6001600081905550565b6040518060400160405280600073ffffffffffffffffffffffffffffffffffffffff168152602001600081525090565b600080fd5b6000819050919050565b610ae581610ad2565b8114610af057600080fd5b50565b600081359050610b0281610adc565b92915050565b600060208284031215610b1e57610b1d610acd565b5b6000610b2c84828501610af3565b91505092915050565b600073ffffffffffffffffffffffffffffffffffffffff82169050919050565b6000610b6082610b35565b9050919050565b610b7081610b55565b82525050565b610b7f81610ad2565b82525050565b604082016000820151610b9b6000850182610b67565b506020820151610bae6020850182610b76565b50505050565b6000604082019050610bc96000830184610b85565b92915050565b60008060408385031215610be657610be5610acd565b5b6000610bf485828601610af3565b9250506020610c0585828601610af3565b9150509250929050565b6000819050919050565b6000610c34610c2f610c2a84610b35565b610c0f565b610b35565b9050919050565b6000610c4682610c19565b9050919050565b6000610c5882610c3b565b9050919050565b610c6881610c4d565b82525050565b6000602082019050610c836000830184610c5f565b92915050565b610c9281610b55565b82525050565b610ca181610ad2565b82525050565b6000604082019050610cbc6000830185610c89565b610cc96020830184610c98565b9392505050565b600082825260208201905092915050565b7f4e6f742073656c6c657200000000000000000000000000000000000000000000600082015250565b6000610d17600a83610cd0565b9150610d2282610ce1565b602082019050919050565b60006020820190508181036000830152610d4681610d0a565b9050919050565b7f5072696365206d757374206265203e2030000000000000000000000000000000600082015250565b6000610d83601183610cd0565b9150610d8e82610d4d565b602082019050919050565b60006020820190508181036000830152610db281610d76565b9050919050565b6000602082019050610dce6000830184610c98565b92915050565b610ddd81610b55565b8114610de857600080fd5b50565b600081519050610dfa81610dd4565b92915050565b600060208284031215610e1657610e15610acd565b5b6000610e2484828501610deb565b91505092915050565b7f596f75206d757374206f776e2074686973204e46540000000000000000000000600082015250565b6000610e63601583610cd0565b9150610e6e82610e2d565b602082019050919050565b60006020820190508181036000830152610e9281610e56565b9050919050565b6000604082019050610eae6000830185610c89565b610ebb6020830184610c89565b9392505050565b60008115159050919050565b610ed781610ec2565b8114610ee257600080fd5b50565b600081519050610ef481610ece565b92915050565b600060208284031215610f1057610f0f610acd565b5b6000610f1e84828501610ee5565b91505092915050565b7f4d61726b6574706c616365206e6f7420617070726f7665640000000000000000600082015250565b6000610f5d601883610cd0565b9150610f6882610f27565b602082019050919050565b60006020820190508181036000830152610f8c81610f50565b9050919050565b7f4e6f74206c697374656400000000000000000000000000000000000000000000600082015250565b6000610fc9600a83610cd0565b9150610fd482610f93565b602082019050919050565b60006020820190508181036000830152610ff881610fbc565b9050919050565b7f4e6f7420656e6f75676820455448000000000000000000000000000000000000600082015250565b6000611035600e83610cd0565b915061104082610fff565b602082019050919050565b6000602082019050818103600083015261106481611028565b9050919050565b60006060820190506110806000830186610c89565b61108d6020830185610c89565b61109a6040830184610c98565b949350505050565b7f5265656e7472616e637947756172643a207265656e7472616e742063616c6c00600082015250565b60006110d8601f83610cd0565b91506110e3826110a2565b602082019050919050565b60006020820190508181036000830152611107816110cb565b905091905056fea2646970667358221220af8da65b607e24473af0d008b1ae8e764f219176b7344a4260dac9a300adcd8964736f6c63430008140033",
  "linkReferences": {},
  "deployedLinkReferences": {}
}